:020000040800F2
:10000000380C002001010008E923000851200008F5
:10001000E5230008B90200089D3300080000000035
:100020000000000000000000000000004D2C00084F
:100030000D03000800000000912A0008092D0008A7
:100040001B0100081B0100081B0100081B01000820
:100050001B0100081B0100081B0100081B01000810
:100060001B0100081B0100081B0100081B01000800
:100070001B0100081B0100081B0100081B010008F0
:100080001B0100081B0100081B0100081B010008E0
:100090001B0100081B0100081B0100081B010008D0
:1000A0001B0100081B0100081B0100081B010008C0
:1000B0001B0100081B0100081B0100081B010008B0
:1000C0001B0100081B0100081B0100081B010008A0
:1000D0001B010008693300088D3300081B0100086C
:1000E0001B0100081B0100081B010008DFF80CD0F1
:1000F00000F07EF80048004721380008380C002046
:100100000648804706480047FEE7FEE7FEE7FEE7B1
:10011000FEE7FEE7FEE7FEE7FEE7FEE7792D0008D3
:10012000ED000008202A04DB203A21FA02F0002129
:10013000704721FA02F3D040C2F1200291400843F7
:1001400019467047D2B201E000F8012B491EFBD2DC
:1001500070470022F6E710B513460A4604461946D2
:10016000FFF7F0FF204610BD30B505462A460B4686
:1001700012F8010B13F8014B08B1A042F8D01CB1E2
:10018000002802D06D1CF1E7284630BD2DE9F05F54
:100190000546002092469B468846064681464024F6
:1001A0001BE02846414647462246FFF7BBFF534621
:1001B0005A46C01A914110D311461846224600F003
:1001C00029F82D1A67EB01084F462246012000212D
:1001D00000F020F817EB00094E41201EA4F10104A5
:1001E000DFDC484631462A464346BDE8F09F000022
:1001F000064C074D06E0E06840F0010394E8070074
:1002000098471034AC42F6D3FFF774FF2C4D00082A
:100210004C4D0008202A04DB203A00FA02F10020AD
:1002200070479140C2F1200320FA03F31943904034
:100230007047000008B51D4840781C49097840EA1D
:100240000120ADF800001948C0781849897840EAC3
:100250000120ADF802001648007828B9022269464C
:10026000144804F0CDF91FE011480078012806D1A8
:10027000022269460F48001D04F0C2F914E00C4840
:100280000078022806D1022269460A48083004F0A4
:10029000B7F909E006480078032805D1022269462B
:1002A00004480C3004F0ACF908BD00001400002034
:1002B000060000200090000800BFFEE770B505466C
:1002C0000C460026284602F007FC064626EA0401F2
:1002D000284603F08BF870BD01B532230122694630
:1002E000014801F04BFE08BDF802002010B5AF2018
:1002F00005490968086440F6B83000F0E9FA322090
:1003000001490968086410BDD0070020704700004B
:1003100010B501210248007800F0B8F810BD0000C7
:1003200006000020704700000021074AD1610749FC
:10033000096941F00401054A11611146096941F05A
:1003400040011161704700001808002000200240A1
:100350000021074AD1610749096941F00201054AB4
:10036000116111464861096941F04001116170470E
:1003700018080020002002400022054BDA61054ADF
:10038000126942F00102034B1A61018070470000BC
:10039000180800200020024000201E49C96801F012
:1003A000100139B11C49C96941F002011A4AD161F1
:1003B00040F010001749C96801F0040139B116492D
:1003C000C96941F00101144AD16140F004001149AA
:1003D000C96901F0010169B10F49C96941F004011E
:1003E0000D4AD16100BF0B49C96921F00101094AD9
:1003F000D16100BF00BF40F20111884206D105491A
:10040000C96921F00101034AD16101E00149C860D5
:1004100000BF7047002002401808002070B5044655
:1004200000F0DAFC054609E0601C38B124B100F0A8
:10043000D3FC401BA04201D9032070BD1248C06804
:1004400000F001000028EFD10F48C06800F0200044
:1004500020B100BF20200C49C86000BF0A48C06816
:1004600000F0100048B90848C06900F0010020B948
:100470000548C06800F0040018B1FFF78DFF0120A7
:10048000DBE70020D9E70000002002402DE9F04121
:1004900004460D4602F005FC02F0DAFB012002F0F2
:1004A000FAFB072002F005FC0C2002F00CFC2012E5
:1004B000FFF712FFE0B2FFF70FFF2812FFF70CFF64
:1004C000E8B2FFF709FF142000EB2420E1B2084452
:1004D00000EB2520E9B200EB0108404602F0D2FB18
:1004E0004FF4FA6001F0B6FD07460FB17E7A00E0E6
:1004F000FF263046BDE8F0812DE9F041054602F0C7
:10050000D0FB02F0A5FB012002F0C5FB042002F0A5
:10051000D0FB022002F0D7FB2846FFF7DDFEEF1DDF
:10052000384602F0AFFB4FF4FA6001F093FD064647
:100530000EB1747A00E0FF242046BDE8F08170B56A
:1005400002F0AFFB02F084FB012002F0A4FB0320C9
:1005500002F0AFFB012002F0B6FB0526304602F0A8
:1005600091FB4FF4FA6001F075FD05460DB16C7A10
:1005700000E0FF24204670BD10B5044602F091FB58
:1005800002F066FB0120FFF7A7FE0020FFF7A4FEA4
:100590000020FFF7A1FEC82000F09AF91248007869
:1005A000F8B100201049087010480078EF2818D1E1
:1005B0000E484078012814D10C488079072810D1C2
:1005C0000A48807800060949C97800EB01400749CC
:1005D000097900EB01200549497908442060002091
:1005E00010BD0120FCE700000F00002004010020E6
:1005F0002DE9F04781460D4616461F4602F051FB95
:1006000002F026FB012002F046FB082002F051FB1D
:100610001B2002F058FB4846FFF75EFE2812FFF74A
:100620005BFEE8B2FFF758FE3012FFF755FEF0B25E
:10063000FFF752FE09F1240000EB2520E9B208443F
:1006400000EB2620F1B200EB010A504602F01AFB43
:100650004FF4FA6001F0FEFC0446A4B194F809805E
:10066000E07AA17A00EB01203880398808A002F0F6
:100670001FFF607B217B00EB01207880798807A039
:1006800002F016FF01E04FF0FF084046BDE8F0879A
:100690007061676549443A25640D0A006D617468AC
:1006A00073636F72653A25640D0A000070B502F03D
:1006B000F8FA02F0CDFA012002F0EDFA032002F080
:1006C000F8FA032002F0FFFA0726304602F0DAFAC1
:1006D0004FF4FA6001F0BEFC05460DB16C7A00E003
:1006E000FF24204670BD70B502F0DBFA02F0B0FACC
:1006F000012002F0D0FA032002F0DBFA052002F01C
:10070000E2FA0926304602F0BDFA4FF4FA6001F031
:10071000A1FC05460DB16C7A00E0FF24204670BDB7
:100720002DE9F04106460C4602F0BBFA02F090FAC1
:10073000012002F0B0FA062002F0BBFA062002F017
:10074000C2FA3046FFF7C8FD2012FFF7C5FDE0B240
:10075000FFF7C2FD06F10D0000EB2420E1B200EB33
:100760000108404602F08EFA4FF4FA6001F072FC84
:1007700007460FB17D7A00E0FF252846BDE8F081ED
:100780002DE9F041064602F08CFA02F061FA0120F0
:1007900002F081FA032002F08CFA1D2002F093FA95
:1007A0002127384602F06EFA4FF4FA6001F052FC4D
:1007B000044634B1657AE07AA17A00EB01203080FA
:1007C00000E0FF252846BDE8F0810146002291F8AF
:1007D0002100022808D00420886300BF002081F88F
:1007E000200000BF012070470868006820F00E005C
:1007F0000B6818600868006820F001000B6818603A
:1008000091F8403001209840CB6B5860012081F86E
:10081000210000BF002081F8200000BF1046E2E761
:1008200070B50446002594F82100022803D0042066
:10083000A063012548E02068006820F00E002168D0
:1008400008602068006820F00100216808601F49E6
:100850002068884201D1012026E01C49143120681B
:10086000884201D110201FE01849283120688842B1
:1008700001D1801518E015493C312068884201D12A
:10088000801411E0114950312068884202D14FF4A0
:10089000803009E00D4964312068884202D14FF46C
:1008A000801001E04FF0807008490839486001204D
:1008B00084F8210000BF002084F8200000BF606B96
:1008C00010B12046616B8847284670BD0800024081
:1008D00070B5044600F080FA06462546681C10B143
:1008E00004480078054400BF00F076FA801BA84257
:1008F000FAD370BD340000202DE9F04104460E46C5
:100900000127002500BF2648007E012802D10220D1
:10091000BDE8F08101202249087600BF2068022846
:1009200013D14CF25030FFF779FD90BB0120FFF757
:10093000FBFC4CF25030FFF771FD07461948006987
:1009400020F004001749086123E04CF25030FFF713
:1009500065FDF0B94FF0FF303060A56812E0284621
:10096000FFF7F6FC4CF25030FFF758FD07460D48F4
:10097000006920F002000B4908610FB1356007E003
:1009800005F58065D4E9021001EB8020A842E6D885
:1009900000BF00BF00200249087600BF3846B7E715
:1009A00018080020002002400348006940F0800041
:1009B0000149086100207047002002402DE9FE4FE8
:1009C00005468B46174698460126002400200290D3
:1009D00000BF2448007E012802D10220BDE8FE8F1E
:1009E00001202049087600BF4CF25030FFF716FD79
:1009F000064686BB012D02D10120029006E0022DA1
:100A000002D10220029001E00420029000241EE0A6
:100A10002201B946C24648465146FFF783FB80B2E1
:100A20000190022000FB04B000900199FFF7A4FCA4
:100A30004CF25030FFF7F2FC06460B48006920F0FC
:100A400001000949086106B104E0601CC4B20298C3
:100A50008442DDDB00BF00BF00200249087600BFF2
:100A60003046BBE71808002000200240002008495B
:100A7000096901F0800151B10649054A51600649F2
:100A800051601146096901F0800101B101207047F0
:100A90000020024023016745AB89EFCD2DE9F847DF
:100AA0000346002294466EE14FF0010808FA02F472
:100AB000D1F8008008EA0400A0427DD1DFF8DCA272
:100AC000D1F80480A8EB0A09D0453AD014DCB8F17B
:100AD000030F50D009DCB8F1000F31D0B8F1010F8D
:100AE0001CD0B8F1020F49D120E0B8F1110F18D095
:100AF000B8F1120F42D11EE0B9F5881F25D006DCEF
:100B0000B9F5803F20D0B9F5801F37D11AE0B9F58B
:100B1000001F18D0B9F5041F30D117E0D1F80CC070
:100B20002DE0D1F80C8008F1040C28E0D1F80C80FD
:100B300008F1080C23E0D1F80C8008F10C0C1EE041
:100B400000BF00BF00BF00BF00BF00BFD1F80880DA
:100B5000B8F1000F02D14FF0040C0BE0D1F808807F
:100B6000B8F1010F03D14FF0080C1C6102E04FF007
:100B7000080C5C6103E04FF0000C00E000BF00BF18
:100B8000FF2801D8984601E003F104084646FF28F3
:100B900002D84FEA820803E0A2F108084FEA880869
:100BA0004746D6F800804FF00F0909FA07F928EAFE
:100BB00009080CFA07F900E088E048EA0908C6F8D5
:100BC0000080D1F8048008F08058B8F1805F7DD1B2
:100BD00000BFDFF8CC81D8F8188048F00108DFF8B2
:100BE000C091C9F81880C846D8F8188008F00108E4
:100BF000CDF8008000BF00BF4FEAB9384FEA920934
:100C000058F829504FEA82784FEA18794FF00F08C8
:100C100008FA09F825EA0805DFF88881434502D17A
:100C20004FF0000816E0DFF88081434502D14FF015
:100C300001080FE0DFF87481434502D14FF002084C
:100C400008E0DFF86C81434502D14FF0030801E072
:100C50004FF004084FEA82794FEA197908FA09F847
:100C600048EA0505DFF84C814FEA920948F8295017
:100C7000D1F8048008F48038B8F5803F0AD1DFF855
:100C80003881D8F8008048EA0008DFF82C91C9F8CC
:100C9000008009E0DFF82081D8F8008028EA000809
:100CA000DFF81491C9F80080D1F8048008F4003806
:100CB000B8F5003F10D1DFF8008108F10408D8F83A
:100CC000008048EA0008DFF8F09000E05AE009F1FF
:100CD0000409C9F800800DE0DFF8DC8008F10408A1
:100CE000D8F8008028EA0008DFF8CC9009F1040960
:100CF000C9F80080D1F8048008F48018B8F5801F86
:100D00000ED1DFF8B48008F10808D8F8008048EA6E
:100D10000008DFF8A49009F10809C9F800800DE087
:100D2000DFF8948008F10808D8F8008028EA000865
:100D3000DFF8849009F10809C9F80080D1F804802F
:100D400008F40018B8F5001F0ED1DFF86C8008F128
:100D50000C08D8F8008048EA0008DFF85C9009F138
:100D60000C09C9F800800DE0DFF84C8008F10C0890
:100D7000D8F8008028EA0008DFF83C9009F10C0957
:100D8000C9F80080521CD1F8008028FA02F8B8F1A6
:100D9000000F7FF489AEBDE8F88700000000111055
:100DA0000010024000080140000C0140001001400A
:100DB000001401400800014000040140024693680D
:100DC0000B400BB1012000E0002070470AB1016127
:100DD00001E00B04036170470148006870470000A0
:100DE0002C000020034800680349097808440149A1
:100DF000086070472C0000203400002010B508481F
:100E0000006840F0100006490860032000F0A8F8D0
:100E1000002000F007F800F02BF8002010BD0000C3
:100E20000020024070B504460E4800784FF47A71F5
:100E3000B1FBF0F00C490968B1FBF0F5284600F071
:100E40000BFC08B1012070BD102C07D200222146F6
:100E5000501E00F047F80548046001E00120F2E769
:100E60000020F0E73400002038000020300000208F
:100E700008B500BF1148806940F001000F49886142
:100E80000846806900F00100009000BF00BF00BF6D
:100E90000846C06940F08050C8610846C06900F04B
:100EA0008050009000BF00BF00BF0549486820F097
:100EB000E06040F00070486000BF08BD00100240D4
:100EC0000000014001460846002809DB00F01F032E
:100ED00001229A4043099B0003F1E023C3F800215B
:100EE00000BF70472DE9F05F80460D46164600278B
:100EF00002F0EEFA074639462A46334601F007006B
:100F0000C0F1070ABAF1040F02D94FF0040A01E058
:100F1000C0F1070AD14600F1040ABAF1070F02D264
:100F20004FF0000A01E0A0F1030AD4464FF0010A95
:100F30000AFA09FAAAF1010A0AEA020A0AFA0CFAFA
:100F40004FF0010B0BFA0CFBABF1010B0BEA030B9F
:100F50004AEA0B042146404602F0C2FABDE8F09F7F
:100F600000BF00F00702064B19684FF6FF03194057
:100F7000044B0B4343EA0221014B196000BF704749
:100F80000CED00E00000FA0570B504460D460CB902
:100F9000012070BD5A48006800F00700A8420ED238
:100FA0005748006820F00700284355490860084664
:100FB000006800F00700A84201D00120E9E720788E
:100FC00000F0020002281DD1207800F0040004285F
:100FD00005D14C48406840F4E0604A4948602078B8
:100FE00000F00800082805D14648406840F46050E9
:100FF000444948604348406820F0F000A168084335
:1010000040494860207800F0010078B3606801280A
:1010100006D13C48006800F4003090B90120B8E7E0
:101020006068022806D13748006800F0007040B9B7
:101030000120AEE73348006800F0020008B9012043
:10104000A7E73048406820F00300616808432D4955
:101050004860FFF7C1FE064609E0FFF7BDFE801BB2
:1010600041F28831884202D9032092E707E02548FF
:10107000406800F00C006168B0EB810FEDD12048B2
:10108000006800F00700A8420ED91D48006820F053
:10109000070028431A4908600846006800F0070066
:1010A000A84201D0012074E7207800F00400042851
:1010B00007D11448406820F4E060E1680843114912
:1010C0004860207800F00800082808D10D484068E2
:1010D00020F46050216940EAC1000A49486000F0EC
:1010E0003FF808494968C1F30311074A515CC840F9
:1010F0000649086006480068FFF794FE002048E7AC
:101100000020024000100240144D0008380000206A
:1011100030000020014800687047000038000020BF
:1011200000B5FFF7F7FF04494968C1F30221034AFC
:10113000515CC84000BD000000100240244D000872
:1011400000B5FFF7E7FF04494968C1F3C221034A2C
:10115000515CC84000BD000000100240244D000852
:10116000F0B585B00FF26C0C9CE8E01001A8A0E887
:10117000E0101CA52D68009500210022002300240A
:101180000020194D696801F00C05F5B1042D02D05D
:10119000082D19D101E0154819E001ADC1F38346CE
:1011A000AC5D01F4803555B10F4D6D68C5F3404518
:1011B0001DF805200D4D6543B5FBF2F302E00C4D23
:1011C00004FB05F3184602E000BF084800BF00BF5B
:1011D00005B0F0BD02030405060708090A0B0C0D53
:1011E0000E0F1010010200000010024000127A00E1
:1011F00000093D00F8B504460CB90120F8BD20787F
:1012000000F00100002878D0F848406800F00C0099
:1012100004280CD0F548406800F00C00082811D1D3
:10122000F248406800F48030B0F5803F0AD1EF48C2
:10123000006800F4003000285FD0606800285CD1AE
:101240000120DBE700BF6068B0F5803F06D1E748CA
:10125000006840F48030E549086028E0606858B9CB
:10126000E248006820F48030E049086008460068E1
:1012700020F4802008601AE06068B0F5A02F0BD140
:10128000DA48006840F48020D849086008460068C1
:1012900040F4803008600AE0D448006820F48030D0
:1012A000D24908600846006820F48020086000BF2A
:1012B000606888B1FFF790FD054606E0FFF78CFDFA
:1012C000401B642801D9032098E7C848006800F44F
:1012D00000300028F2D010E0FFF77EFD054606E062
:1012E000FFF77AFD401B642801D9032086E7BF4839
:1012F000006800F400300028F2D1207800F00200ED
:10130000022857D1B948406800F00C0050B1B748E6
:10131000406800F00C00082818D1B448406800F478
:10132000803098B9B148006800F0020020B120690F
:10133000012801D0012061E7AC48006820F0F800E6
:10134000616940EAC100A949086033E02069E8B159
:101350000120A7490860FFF73FFD054606E0FFF7BB
:101360003BFD401B022801D9032047E79F48006846
:1013700000F002000028F2D09C48006820F0F8003D
:10138000616940EAC1009949086013E0002098496A
:101390000860FFF721FD054606E0FFF71DFD401B35
:1013A000022801D9032029E79048006800F00200D4
:1013B0000028F2D1207800F0080008282DD1A0697B
:1013C000B8B101208B490860FFF706FD054606E02D
:1013D000FFF702FD401B022801D903200EE78348D6
:1013E000406A00F002000028F2D0012001F052FB18
:1013F00013E000207F490860FFF7EEFC054606E099
:10140000FFF7EAFC401B022801D90320F6E67748E3
:10141000406A00F002000028F2D1207800F00400B9
:10142000042873D100277148C06900F0805070B95A
:1014300000BF6E48C06940F080506C49C8610846E2
:10144000C06900F08050009000BF00BF01276A48CB
:10145000006800F48070B0B96748006840F480709C
:1014600065490860FFF7B8FC054606E0FFF7B4FCE5
:10147000401B642801D90320C0E65F48006800F4DF
:1014800080700028F2D000BFE068012806D15748DC
:10149000006A40F001005549086227E0E06858B949
:1014A0005248006A20F00100504908620846006A6C
:1014B00020F00400086219E0E06805280BD14B48D1
:1014C000006A40F00400494908620846006A40F09A
:1014D000010008620AE04548006A20F00100434923
:1014E00008620846006A20F00400086200BFE06855
:1014F000A0B1FFF771FC054609E0FFF76DFC401B4A
:1015000041F28831884202D9032077E622E0374849
:10151000006A00F002000028EFD012E0FFF75CFC48
:10152000054608E0FFF758FC401B41F2883188422D
:1015300001D9032062E62D48006A00F0020000286D
:10154000F0D1012F05D12948C06920F080502749EA
:10155000C86100BFE069C8B32448406800F00C00CF
:10156000082860D0E069022848D100202049086698
:10157000FFF732FC054606E0FFF72EFC401B022871
:1015800001D903203AE61948006800F000700028ED
:10159000F2D1206AB0F5803F07D11448406820F4AA
:1015A0000030A168084311494860D4E908010843A4
:1015B0000E49496821F4741108430C494860012020
:1015C0000B490866FFF708FC054607E03DE0FFF71A
:1015D00003FC401B022801D903200FE603480068E2
:1015E00000F000700028F2D02FE000000010024050
:1015F0000000424280044242007000400020144932
:101600000866FFF7E9FB054606E0FFF7E5FB401B30
:10161000022801D90320F1E50E48006800F00070AF
:101620000028F2D111E0E069012800D1E6E509487F
:10163000466806F48031206A814204D106F47011B4
:10164000606A814201D00120D8E50020D6E5000083
:10165000000042420010024070B504462546681E54
:10166000B0F1807F01D301200FE0681E4FF0E02130
:1016700048610F214FF0FF3001F032FF00204FF0A2
:10168000E021886107200861002070BD30B5024666
:101690000B4600BF92F83C00012801D1022030BD6A
:1016A000012082F83C0000BF022082F83D00106853
:1016B00044681068816824F0700418680443106856
:1016C0004460104D1068A8420BD01068B0F1804FF4
:1016D00007D00D4D1068A84203D00C4D1068A842E9
:1016E00005D121F080015868014310688160012014
:1016F00082F83D0000BF002082F83C0000BF00BF20
:10170000CDE70000002C014000040040000800402C
:1017100010B586B004460020029003900490059016
:101720000E492068884216D100BF0D48806940F0FC
:1017300008000B4988610846806900F008000190A4
:1017400000BF00BF4815029002200390059002A937
:101750000448FFF7A3F906B010BD000000080040E0
:1017600000100240000C014070B504460D461646BC
:1017700000BF94F83C00012801D1022070BD012077
:1017800084F83C0000BF36B1042E1BD0082E31D0A7
:101790000C2E5ED145E02946206801F065FB2068EB
:1017A000806940F00800216888612068806920F025
:1017B00004002168886120688069296908432168DC
:1017C000886147E02946206801F07EFB2068806937
:1017D00040F40060216888612068806920F480609E
:1017E0002168886120688069296940EA01202168B0
:1017F00088612FE02946206801F09AFB2068C069C3
:1018000040F008002168C8612068C06920F0040029
:101810002168C8612068C069296908432168C861D6
:1018200018E02946206801F0B7FB2068C06940F441
:1018300000602168C8612068C06920F48060216868
:10184000C8612068C069296940EA01202168C8612F
:1018500000E000BF00BF00BF002084F83C0000BFD4
:1018600000BF8BE710B504460CB9012010BD94F8F9
:101870003D0028B9002084F83C00204600F026F8FE
:10188000022084F83D00211D206801F0A1FA01200A
:1018900084F8460000BF84F83E0001213F20015536
:1018A000402001554120015500BF00BF012084F8B0
:1018B000420043200155442001554520015500BFF9
:1018C000012084F83D000020D0E7000008B5094A57
:1018D000016891420DD100BF0749C96941F0040177
:1018E000054AD1611146C96901F00401009100BFA8
:1018F00000BF08BD000800400010024070B504465B
:101900000D4615B994F83E000BE0042D02D13F209E
:10191000005D06E0082D02D14020005D01E041207D
:10192000005D012801D0012070BD1DB9022084F89E
:101930003E000EE0042D03D102213F20015508E0B6
:10194000082D03D102214020015502E0022141204F
:10195000015501222946206801F074FA19492068CE
:10196000884201D1012000E0002028B12068406CAD
:1019700040F40040216848641249206888420BD036
:101980002068B0F1804F07D00F492068884203D00B
:101990000E49206888420CD12068806800F0070654
:1019A000062E0CD02068006840F001002168086015
:1019B00005E02068006840F0010021680860002010
:1019C000B2E70000002C0140000400400008004085
:1019D0007047704710B504462068C06820F49070C6
:1019E0002168C8602068406920F0010021684861D2
:1019F000206B012805D12068C06820F01000216804
:101A0000C8602068406900F04000E8B12068406983
:101A100020F0400021684861A06B50B11048A16BD4
:101A20004863A06BFEF7FCFEC0B1A06B416B88471A
:101A300014E00020E085202084F83E000020206390
:101A40002046FFF7C6FF09E00020E085202084F84B
:101A50003E00002020632046FFF7BBFF002010BDA2
:101A6000F52F0008704700002DE9F84F0446206864
:101A700005682068C668206847694FF00009CA46B3
:101A800005F00F09B9F1000F0AD105F0200038B1B7
:101A900006F0200020B1204601F0E5FABDE8F88FFD
:101AA000B9F1000F71D007F0010018B906F4907079
:101AB00000286AD005F0010030B106F4807018B13A
:101AC000206C40F00100206405F0040030B107F004
:101AD000010018B1206C40F00200206405F0020003
:101AE00030B107F0010018B1206C40F00400206410
:101AF00005F0080048B106F0200010B907F0010019
:101B000018B1206C40F008002064206C68B305F028
:101B1000200028B106F0200010B1204601F0A3FA01
:101B200020684069C0F3801A206C00F0080010B9EA
:101B3000BAF1000F22D0204601F06AFA206840690D
:101B400000F04000B0B12068406920F040002168FA
:101B50004861A06B50B15648A16B4863A06BFEF77B
:101B60005FFE10B1A06B416B88470CE02046FFF789
:101B700079FF08E02046FFF775FF04E02046FFF7F5
:101B800071FF0020206489E7FFE7206B012878D1EE
:101B900005F01000002874D006F01000002870D066
:101BA00000BF002000902068006800902068406816
:101BB000009000BF00BF2068406900F04000C0B343
:101BC000A06B006840681FFA80F8B8F1000F2FD0B2
:101BD000A08D40452CDDA4F82E80A06B80692028C4
:101BE0001FD02068C06820F480702168C860206819
:101BF000406920F00100216848612068406920F0B8
:101C0000400021684861202084F83E0000202063C5
:101C10002068C06820F010002168C860A06BFEF743
:101C2000D4FDA08DE28D801A81B22046FFF7D0FE50
:101C300034E7FFE7A08DE18D401A1FFA80F8E08DB0
:101C4000E8B1B8F1000F1AD02068C06820F4907095
:101C50002168C8602068406920F00100216848615F
:101C6000202084F83E00002020632068C06820F017
:101C700010002168C86041462046FFF7A9FE0DE725
:101C8000FFE705F0800030B106F0800018B1204673
:101C900001F003FB02E705F0400030B106F0400020
:101CA00018B1204601F0CFF9F8E600BFF6E60000D3
:101CB000E12F000810B504460CB9012010BDA06941
:101CC00000B100E000BF94F83D0028B9002084F87E
:101CD0003C00204600F028F8242084F83D002068CD
:101CE000C06820F400502168C860204601F02EFA38
:101CF0002068006920F490402168086120684069EC
:101D000020F02A00216848612068C06840F4005033
:101D10002168C86000202064202084F83D0084F8F9
:101D20003E000020CAE7000010B586B0044600203F
:101D3000029003900490059055492068884237D15D
:101D400000BF5448806940F4804052498861084689
:101D5000806900F48040019000BF00BF00BF0846CA
:101D6000806940F0040088610846806900F0040042
:101D7000019000BF00BF481502900220039003208D
:101D8000059002A94448FEF789FE4FF48060029056
:101D900000200390049002A93F48FEF77FFE032233
:101DA00011462520FFF79EF82520FFF78BF86DE000
:101DB0003A492068884236D100BF3648C06940F4AD
:101DC00000303449C8610846C06900F40030019011
:101DD00000BF00BF00BF0846806940F00400886172
:101DE0000846806900F00400019000BF00BF042095
:101DF0000290022003900320059002A92648FEF7D6
:101E00004DFE0820029000200390049002A9224871
:101E1000FEF744FE002211462620FFF763F8262035
:101E2000FFF750F832E01E49206888422ED100BFEB
:101E30001848C06940F480201649C8610846C06946
:101E400000F48020019000BF00BF00BF08468069F9
:101E500040F0080088610846806900F008000190A1
:101E600000BF00BF081502900220039003200590D8
:101E700002A90C48FEF712FE4FF400600290002009
:101E80000390049002A90748FEF708FE06B010BDB3
:101E900000380140001002400008014000440040AA
:101EA00000480040000C014070B504460D4616463F
:101EB00094F83E00202816D105B10EB9012070BD5E
:101EC00000BF94F83C00012801D10220F7E701206F
:101ED00084F83C0000BF002020633246294620469B
:101EE00001F0B2F9EBE70220E9E7000038B504465B
:101EF0001C492068884233D01B49206888422FD172
:101F00004FF6FF73022219A1194800F037F800BFFD
:101F1000002000901648006800680090144800688F
:101F20004068009000BF00BF12480078312802D1FD
:101F300001201149087000BF01220E490C48FFF72B
:101F4000B3FF0028F8D000BF0020009008480068C8
:101F500000680090064800684068009000BF00BF1D
:101F600038BD000000380140004400404F4B0000E5
:101F70003C0300200E000020020000202DE9F84F55
:101F800004460E46174699464FF0000A94F83D0065
:101F900020285AD106B117B90120BDE8F88F00BF3B
:101FA00094F83C00012801D10220F6E7012084F8D2
:101FB0003C0000BF00202064212084F83D00FEF793
:101FC0000BFF8246A784E784A068B0F5805F04D148
:101FD000206910B90025B04602E035464FF00008F0
:101FE00000BF002084F83C0000BF1BE053460022E5
:101FF00080212046CDF8009001F07FF908B1032040
:10200000CBE745B9B8F80000C0F308002168486084
:1020100008F1020803E02878216848606D1CE08C14
:10202000401EE084E08C0028E0D15346002240218D
:102030002046CDF8009001F060F908B10320ACE72C
:10204000202084F83D000020A7E70220A5E7704784
:1020500000BFFEE77CB50546EF208DF800000120AB
:102060008DF8010018480068000E8DF8020016482F
:102070000068000C8DF8030013480088000A8DF8F2
:102080000400114800788DF8050007208DF806003F
:1020900000208DF8070010E00120FEF719FC0B4826
:1020A000007850B100200949087069460848FEF7D9
:1020B0005BF804460CB120467CBD681E80B2051E4C
:1020C000EAD100BFF8E70000100000200F00002058
:1020D0000401002000B585B000200190029003901B
:1020E000049000BF0C48806940F008000A498861EC
:1020F0000846806900F00800009000BF00BF4FF460
:1021000070400190002002900120039001A9034833
:10211000FEF7C4FC05B000BD00100240000C0140F9
:1021200010B500244FF480512F48FEF747FE88B9C0
:102130001420FEF7CDFB4FF480512B48FEF73EFEF6
:1021400040B900BF4FF480512748FEF737FE002802
:10215000F8D001244FF400512348FEF72FFE88B930
:102160001420FEF7B5FB4FF400511F48FEF726FE82
:1021700040B900BF4FF400511B48FEF71FFE002876
:10218000F8D002244FF480411748FEF717FE88B9B3
:102190001420FEF79DFB4FF480411348FEF70EFE1E
:1021A00040B900BF4FF480410F48FEF707FE0028FA
:1021B000F8D003244FF400410B48FEF7FFFD88B927
:1021C0001420FEF785FB4FF400410748FEF7F6FDAB
:1021D00040B900BF4FF400410348FEF7EFFD00286F
:1021E000F8D00424204610BD000C014010B5044670
:1021F000412C25D108210846FEF760F83D21112029
:1022000001F0F4F88621172001F0F0F87F21262054
:1022100001F0ECF81E212D2001F0E8F800212C201F
:1022200001F0E4F88D212A2001F0E0F83E212B2076
:1022300001F0DCF8012001F0D7FA00F077FA01E0B4
:10224000FF2010BD0020FCE708B500BF13488069DF
:1022500040F02000114988610846806900F02000A4
:10226000009000BF00BF00BF0846806940F0040036
:1022700088610846806900F00400009000BF00BF3C
:1022800000BF0846806940F0080088610846806900
:1022900000F00800009000BF00BF08BD0010024021
:1022A00000B589B00020079008901C216846FDF712
:1022B00050FF18481849086040F2CF2048600021BC
:1022C0001548816040F2CF71C160002101618161D8
:1022D000FFF7C8FA08B1FEF725F80020079008902C
:1022E00007A90D48FFF7D2F908B1FEF71BF86020E7
:1022F000009000200190029004900C22694606484C
:10230000FFF732FA08B1FEF70DF80348FFF700FABD
:1023100009B000BD00080040D007002010B50F48EC
:102320000F4908604FF46140486000210C4881600B
:10233000C16001610C21416100218161C161FFF730
:10234000B9FC08B1FDF7EEFF4FF4FA7205490448F5
:10235000FFF7AAFD08B1FDF7E5FF10BD0038014009
:10236000F80200200401002010B50D480D49086056
:102370004FF4E130486000210A488160C16001618A
:102380000C21416100218161C161FFF793FC08B11B
:10239000FDF7C8FF012204490248FFF785FD10BD83
:1023A000004400403C0300200E00002010B50B4804
:1023B0000B4908604FF4E130486000210848816013
:1023C000C16001610C21416100218161C161FFF7A0
:1023D00071FC08B1FDF7A6FF10BD000000480040E9
:1023E0008003002000BFFEE7704770B500240EE0B8
:1023F0000021204600F0CFF8002504E0002000F086
:102400007FF9681CC5B2802DF8DB601CC4B2082CB3
:10241000EEDB70BD00B585B0002001900290039006
:10242000049000BF0F48806940F008000D498861A2
:102430000846806900F00800009000BF00BF01223C
:10244000C0210948FEF7C2FCC02001900120029083
:10245000002003900320049001A90348FEF71EFB0F
:1024600005B000BD00100240000C014070B50546EB
:1024700000240DE08021214101EA050000F01EF951
:10248000012000F009F9002000F006F9601CC4B238
:10249000082CEFDB012000F0FFF8002000F0FCF832
:1024A00070BD10B5012000F009F9012000F0F4F82A
:1024B000002000F003F9002000F0EEF810BD10B588
:1024C000002000F0FBF8012000F0E6F8012000F009
:1024D000F5F810BD70B5002406E0002500E06D1C85
:1024E000B5F57A7FFBD3641CB4F57A7FF5D3FFF79B
:1024F00091FFAE2000F0F4F8D52000F0F1F8802034
:1025000000F0EEF8A82000F0EBF83F2000F0E8F82B
:10251000D32000F0E5F8002000F0E2F8402000F0C1
:10252000DFF8A12000F0DCF8C82000F0D9F8DA20AC
:1025300000F0D6F8122000F0D3F8812000F0D0F897
:10254000CF2000F0CDF8D92000F0CAF8F12000F03B
:10255000C7F8DB2000F0C4F8302000F0C1F8A42058
:1025600000F0BEF8A62000F0BBF88D2000F0B8F80F
:10257000142000F0B5F8AF2000F0B2F8FFF735FFF7
:1025800070BD10B50246012000E050430B1EA1F1C2
:102590000101FAD110BD70B505460C4645F0B000FA
:1025A00000F09EF8102141EA141000F099F804F0B0
:1025B0000F0000F095F870BD2DE9F04105460E467C
:1025C0001746721ED206110E6A1E5206100EFFF733
:1025D000E2FF002409E0A7F12001134A02EB0111F8
:1025E000085D00F08DF8601CC4B2082CF3DB721E8D
:1025F000D206110E6A1E012303EB4202D0B2FFF78E
:10260000CAFF00240BE0A7F12001074A02EB0112E8
:1026100004F10801505C00F073F8601CC4B2082C8F
:10262000F1DBBDE8F0810000244700082DE9F04708
:1026300080460E4617461D46002415E0281B411E05
:102640000A20FFF79EFFB7FBF0F00A21B0FBF1F282
:1026500001FB120000F130093019C1B24A46404670
:10266000FFF7AAFF601CC4B2AC42E7DBBDE8F0870D
:102670002DE9F04107460E461546002407E02A5D85
:102680003019C1B23846FFF797FF601CC4B2285D0D
:102690000028F4D1BDE8F08110B504462CB1012228
:1026A00040210548FEF792FB04E000224021024849
:1026B000FEF78CFB10BD0000000C014010B5044675
:1026C0002CB1012280210548FEF780FB04E00022A6
:1026D00080210248FEF77AFB10BD0000000C01408B
:1026E00010B50446FFF7DDFE7820FFF7BFFE00209F
:1026F000FFF7BCFE2046FFF7B9FEFFF7E0FE10BD76
:1027000010B50446FFF7CDFE7820FFF7AFFE40205E
:10271000FFF7ACFE2046FFF7A9FEFFF7D0FE10BD85
:1027200010B503211420FDF7C9FD10BD10B514200C
:1027300000F0D2F9044604F0030018B90321142074
:1027400000F0D4FA10BDF0B587B005460027082187
:102750000846FDF7B3FD00210D2000F047FE802163
:102760000E20FDF7ABFD93208DF8040020208DF89E
:10277000050006A801AB022201A900900C2000F080
:102780001AF8064686B9002407E001A8005D28551E
:1027900001A8005D4740601CC4B2042CF5DB01A811
:1027A000005DB84200D0FE2680210E2000F09EFA87
:1027B000304607B0F0BD2DE9FE4F064688469146EB
:1027C0009A46DDF830B0FE20029000200190009083
:1027D0000C2E06D00E2E09D1122001901020009050
:1027E00005E0772001903020009000E000BF00BF9E
:1027F000019840F08001022000F0F8FD80210420C3
:10280000FDF75CFD0021012000F0F0FD80210A2091
:1028100000F06CFA002505E018F80510092000F01A
:10282000E5FD6D1C4D45F7D33146012000F0DEFD7E
:102830000C2E03D180210D2000F058FA4FF4FA65D8
:1028400000BF042000F048F904466D1E35B104F0C5
:10285000010018B9009820400028F2D080210D20F6
:10286000FDF72CFD95B3062000F036F900F01B00B3
:1028700068BB002002900198204000F0010008B1E0
:10288000FF2002900C2E24D10A2000F025F90446E6
:102890000C2000F021F900F007072FB1601E07EBB4
:1028A000C000CBF8000002E0E000CBF8000004B963
:1028B0000124122C00DD1224002505E0092000F07F
:1028C0000BF90AF805006D1CA542F7D301E0FE20C4
:1028D000029080210C2000F009FA0021012000F074
:1028E00085FD0298BDE8FE8F00B585B000200190FF
:1028F00002900390049000BF2F48806940F02000B0
:102900002D4988610846806900F02000009000BFD2
:1029100000BF00BF0846806940F004008861084697
:10292000806900F00400009000BF00BF00BF0846AF
:10293000806940F0080088610846806900F008005E
:10294000009000BF00BF0022C0211C48FEF73EFAE5
:10295000012203211A48FEF739FA202001900020B5
:102960000290039001A91548FEF798F840200190C5
:1029700001200290002003900220049001A90F483A
:10298000FEF78CF880200190012002900020039037
:102990000320049001A90948FEF780F80320019064
:1029A00001200290002003900320049001A9044814
:1029B000FEF774F805B000BD0010024000080140A9
:1029C000000C014070B588B005460C460821084649
:1029D000FDF774FC07210D2000F008FD03211420F1
:1029E00000F084F98DF8085007A802AB012202A973
:1029F00000900C20FFF7DFFE06464EB9079810281E
:102A000006D19DF8080020709DF80900607000E074
:102A1000FE26304608B070BD10B5012240211B488B
:102A2000FEF7D4F9012000F0DFFE00224021174814
:102A3000FEF7CCF9012000F0D7FE01224021134817
:102A4000FEF7C4F90A2000F0CFFE022000F044F89F
:102A50000F21012000F0CAFC3D21112000F0C6FC2E
:102A60001E212D2000F0C2FC00212C2000F0BEFC15
:102A70008D212A2000F0BAFC3E212B2000F0B6FC6C
:102A80004021152000F0B2FC002010BD00080140DC
:102A90007047000008B508490968C9084FF47A7200
:102AA000B1FBF2F14143009100BF00BF00994A1E03
:102AB00000920029F9D108BD3800002010B5FFF7B9
:102AC00013FFFFF7A9FFFFF72BFEFFF72FFE4120B3
:102AD000FFF78CFB10BD00002DE9F04106460025F4
:102AE000002201212748FEF771F97E2000EA460006
:102AF00040F0800708241BE0002280212248FEF7D6
:102B000065F907F0800028B1012202211D48FEF777
:102B10005DF904E0002202211A48FEF757F901226C
:102B200080211948FEF752F97806070E601EC4B2DC
:102B3000002CE1DC082415E0002280211248FEF779
:102B400045F96806050E012280210F48FEF73EF97F
:102B500020210D48FEF732F9012801D145F0010589
:102B6000601EC4B2002CE7DC012211460548FEF7C6
:102B70002DF9012280210448FEF728F92846BDE8F6
:102B8000F0810000000C01400008014008B502225D
:102B90006946294801F020FDBDF8000000122749D0
:102BA0000870BDF800004870BDF80200001288707F
:102BB000BDF80200C870022269461F48001D01F0DE
:102BC0000BFDBDF8000000121D490870BDF80000A3
:102BD0004870BDF8020000128870BDF80200C8708D
:102BE000022269461448083001F0F6FCBDF80000E6
:102BF000001214490870BDF800004870BDF80200CA
:102C000000128870BDF80200C870022269460A48A6
:102C10000C3001F0E1FCBDF8000000120A49087018
:102C2000BDF800004870BDF8020000128870BDF8C1
:102C30000200C87008BD0000009000081C000020C1
:102C40002000002024000020280000207047000001
:102C500010B50B490968080EFDF73EFB08480068EF
:102C6000C0F30740FDF738FB05480088C0F3072094
:102C7000FDF732FB02490878FDF72EFB10BD00007E
:102C80001000002010B504462012FDF725FBE0B22D
:102C9000FDF722FB10BD10B504462046FDF71CFBD6
:102CA00010BD10B5EF20FDF717FB0120FDF714FB59
:102CB00010BD10B50446C4F30720FDF70DFBE0B2CC
:102CC000FDF70AFB10BD10B504462046FDF704FBD6
:102CD00010BD000010B50C210348FEF70FFE322096
:102CE00001490968086410BDD007002070B5054689
:102CF0000C4600262846FFF7EFFE064646EA04018A
:102D0000284600F073FB70BD10B5FEF76BF810BDE0
:102D100000B58FB0282105A8FDF71BFA14216846DD
:102D2000FDF717FA01200590000406900020079097
:102D30000120099002200C90C1030D914FF4E01185
:102D40000E9105A8FEF756FA08B1FDF7EBFA0F2031
:102D5000009002200190002002904FF480600390C8
:102D60000020049002216846FEF70EF908B1FDF735
:102D7000D9FA0FB000BD00001148006840F0010012
:102D80000F490860084640680E4908400C494860F1
:102D9000084600680C490840094908600846006870
:102DA00020F4802008600846406820F4FE00486057
:102DB0004FF41F008860C803044908607047000092
:102DC000001002400000FFF8FFFFF6FE08ED00E0F3
:102DD00010B50268184B984208D0B0F1804F05D06A
:102DE000164B984202D0164B984203D122F0700243
:102DF0004B681A43104B984208D0B0F1804F05D071
:102E00000E4B984202D00E4B984203D122F44072EE
:102E1000CB681A4322F080034C6943EA0402026043
:102E20008B68C3620B688362034B984201D10B69C4
:102E300003630123436110BD002C014000040040E6
:102E40000008004030B501F01F05012404FA05F325
:102E5000046A9C430462046A01F01F0502FA05F546
:102E60002C43046230BD000030B5056A25F0010531
:102E70000562026A4368846924F0700424F0030444
:102E80000D682C4322F002028D682A430D4DA842A2
:102E900006D100BF22F00802CD682A4322F00402C6
:102EA000084DA84207D123F4807323F400734D69C1
:102EB0002B438D692B43436084614D6845630262F7
:102EC00030BD0000002C014030B5056A25F010052A
:102ED0000562026A4368846924F4E04424F440747F
:102EE0000D6844EA052422F020028D6842EA0512AA
:102EF0000E4DA84207D100BF22F08002CD6842EA01
:102F0000051222F04002094DA84209D123F4806342
:102F100023F400634D6943EA85038D6943EA850321
:102F2000436084614D688563026230BD002C0140BE
:102F300030B5056A25F480750562026A4368C46984
:102F400024F0700424F003040D682C4322F4007272
:102F50008D6842EA05220F4DA84207D100BF22F436
:102F60000062CD6842EA052222F48062094DA8423F
:102F700009D123F4805323F400534D6943EA051328
:102F80008D6943EA05134360C4614D68C5630262FD
:102F900030BD0000002C014030B5056A25F4805595
:102FA0000562036A4468C26922F4E04222F4407276
:102FB0000D6842EA052223F400538D6843EA053385
:102FC000064DA84204D124F480444D6944EA851496
:102FD0004460C2614D680564036230BD002C01404D
:102FE00070B505466C6A0020E085E0842046FEF757
:102FF00039FD70BD70B505466C6A0020E085202063
:1030000084F83E00002020632046FEF7E2FC70BDFD
:103010000168C96821F490710268D160016849694A
:1030200021F0010102685161016B012905D101689C
:10303000C96821F010010268D160202180F83E109B
:1030400000210163704710B504462068C06820F075
:1030500040002168C860202084F83D002046FEF72B
:10306000F6FF002010BDF8B5044694F83E00222873
:1030700069D1A068B0F5805F0CD1206950B90025F6
:10308000A66A20684068C0F308003080A06A801CEF
:10309000A06215E0A56A0026A068B0F5805F03D0A5
:1030A000A06828B9206918B920684068287004E031
:1030B0002068406800F07F002870A06A401CA06271
:1030C000E08D401E80B2E085A8BB2068C06820F07B
:1030D00020002168C8602068C06820F480702168E2
:1030E000C8602068406920F0010021684861202004
:1030F00084F83E00206B01281ED100202063206848
:10310000C06820F010002168C8602068006800F0E6
:10311000100010280AD100BF00200090206800682D
:10312000009020684068009000BF00BFA18D20463D
:10313000FEF74EFC03E004E02046FEF7D7FE002039
:10314000F8BD0020FCE70220FAE7000070B5044655
:103150002168096921F44051E26811432268116134
:103160002269A1681143626941EA02052168C968C0
:1031700041F20C62914329432268D1602168496978
:1031800021F44071A2691143226851612D4A2168DE
:10319000914202D1FDF7D4FF01E0FDF7C1FF00EB42
:1031A000C00101EB001162689200B1FBF2F100EB8B
:1031B000C00202EB001263689B00B2FBF3F26423CF
:1031C000B2FBF3F202EBC20303EB0212A1EB8201AA
:1031D000322202EB01116422B1FBF2F101F0F001A5
:1031E00000EBC00202EB001263689B00B2FBF3F23B
:1031F0006423B2FBF3F201EB021200EBC00101EB1E
:10320000001163689B00B1FBF3F100EBC00303EB1B
:1032100000136668B600B3FBF6F36426B3FBF6F35F
:1032200003EBC30606EB0313A1EB8301322303EB8D
:1032300001116423B1FBF3F101F00F011144226885
:10324000916070BD0038014010B5034699629A85BF
:10325000DA8500201864222083F83E0000BF002099
:1032600083F83C0000BF1868C06840F480701C6898
:10327000E0601868406940F001001C6860611868EF
:10328000C06840F020001C68E0601868C06840F02A
:1032900010001C68E060002010BD014691F83D0060
:1032A000212828D18868B0F5805F0BD1086948B91A
:1032B0000A6A1088C0F308000B685860086A801C0E
:1032C000086205E00B6A581C086218780B685860A1
:1032D000C88C401E80B2C88458B90868C06820F005
:1032E00080000B68D8600868C06840F040000B6838
:1032F000D860002070470220FCE72DE9F041044629
:103300000D4617469846069E21E0701CF8B12EB176
:10331000FDF762FDA0EB0800B04218D92068C06834
:1033200020F4D0702168C8602068406920F0010056
:1033300021684861202084F83D0084F83E0000BFE9
:10334000002084F83C0000BF0320BDE8F081206825
:1033500000682840A84201D1012000E00020B842C6
:10336000D3D00020F1E7000010B5064800680468DB
:103370000448FEF779FB0448204010B1014800F0F2
:103380000FF810BDF80200201000001010B5024820
:10339000FEF76AFB10BD00003C03002000BFFEE703
:1033A00038B5044600BF002000900D480068006852
:1033B00000900B4800684068009000BF00BF0848BC
:1033C000C08DC0F5FA70074908702046FEF702FB71
:1033D0004FF4FA7204490248FEF766FD38BD00005A
:1033E000F80200200F000020040100202DE9F04128
:1033F00006460D46002280212B48FDF7E7FC0022FF
:1034000001212A48FDF7E2FC7E2000EA4607082455
:103410001BE007F0800028B1012202212348FDF7BC
:10342000D5FC04E0002202212048FDF7CFFC012258
:1034300080211D48FDF7CAFC7806070E0022802176
:103440001948FDF7C3FC601EC4B2002CE1DC08245F
:103450001BE005F0800028B1012202211348FDF78E
:10346000B5FC04E0002202211048FDF7AFFC012268
:1034700080210D48FDF7AAFC6806050E0022802178
:103480000948FDF7A3FC601EC4B2002CE1DC012258
:1034900011460648FDF79AFC012280210248FDF7FB
:1034A00095FCBDE8F081000000080140000C0140DF
:1034B0000FB4054B10B503A9044A029800F034F884
:1034C00010BC5DF814FB000005380008080000205F
:1034D00002480068C0F30220704700000CED00E0D5
:1034E00010B5002804DB0A07130E054A135406E042
:1034F0000A07140E034A00F00F031B1FD45410BD1B
:1035000000E400E018ED00E002E008C8121F08C166
:10351000002AFAD170477047002001E001C1121F54
:10352000002AFBD1704700002DE9FF4F8DB09B466C
:103530000F460446002606E025280BD05A460F9970
:103540009047641C761C20780028F5D111B03046D5
:10355000BDE8F08F0025A8460122984900E0054308
:1035600014F8013F203B02FA03F00842F7D120781B
:103570002E2817D114F8010F45F004052A280ED083
:103580006FF02F022078A0F1300109290AD808EB4A
:10359000880102EB410100EB0108641CF2E757F8D7
:1035A000048B641C20786C280DD004DC4C2812D0CD
:1035B0006A2811D104E074280DD07A280CD10AE0D1
:1035C00045F4001507E0617845F48015814202D189
:1035D000641C05F58015641C2278692A45D008DC36
:1035E000002AB3D0582A69D0632A10D0642A08D19F
:1035F0003BE0702A67D0732A13D0752A5CD0782AF2
:103600005CD010465A460F999047761CD3E017F8C5
:10361000040B8DF8000000208DF80100E946012020
:1036200003E057F8049B4FF0FF3069074FF00005A7
:1036300001D40AE06D1C45450DDA8542FADB19F824
:1036400005100029F6D106E06D1C8542FCDB19F857
:1036500005100029F8D12E4404E019F8010B5A4650
:103660000F9990476D1EF8D2A5E00A200021CDE900
:103670000801C5F3025002280DD001CFC117031E67
:1036800071F100030DDA4FF0000CD0EB0C006CEB85
:1036900001012D2308E0FF1D27F00707F7E80201CD
:1036A000EDE72B0504D52B238DF8283001233BE0D3
:1036B000EB0739D02023F7E70A2000E01020002193
:1036C000CDE9080107E01020002145F00405CDE90F
:1036D00008014FF00808C5F3025002280FD001CFAF
:1036E00000214FF0000A2B071FD5702A0DD0DDE90D
:1036F00008C38CF0100C5CEA030C0CD015E0FF1D25
:1037000027F00707F7E80201EBE740228DF82820B1
:103710004FF0010A0BE050EA010306D030238DF888
:1037200028308DF8292002239A46582A04D024A252
:103730000DF120090B9209E026A2F9E7DDE9082343
:10374000FCF724FD0B9B9B5C09F8013D50EA01024C
:10375000F4D1ADEB090020300890680701D44FF098
:1037600001080899884502DDA8EB010000E000206F
:103770008046002506E00AA85A46405D0F9990470A
:103780006D1C761C5545F6DB04E030205A460F9937
:103790009047761CB8F10001A8F10108F5DC05E0BE
:1037A00019F8010B5A460F999047761C0899481E44
:1037B00008900029F4DC641CC5E60000092801001B
:1037C0003031323334353637383961626364656697
:1037D0000000000030313233343536373839414259
:1037E0004344454600000000002107E0002200E0BD
:1037F000521C4EF660239A42FAD3491C8142F5D3FB
:103800007047000013B50C464FF6FF73012269465E
:103810000248FEF7B3FB00981CBD000080030020A7
:1038200008B5FDF7EBFAFFF773FAFEF70DFDFEF7AB
:1038300037FDFEF773FDFEF797FDFEF7B7FDF5A028
:10384000FFF736FEFEF746FEF4A201210846FEF71A
:103850000FFFF7A201210220FEF70AFFFFF72EF962
:10386000FEF738FCFFF736FA05E06420FDF730F884
:10387000F4A0FFF71DFEF848FCF77EFE0028F4D107
:10388000FFF784F94FF47A70FDF722F8F3A0FFF701
:103890000FFEF8A201210220FEF7EAFE4FF47A7033
:1038A000FDF716F8FEE3FEF7A0FDF74800780628BE
:1038B0007ED2DFE810F006001201A50272031604A2
:1038C0006A05F2A201210846FEF7D2FE02E1F348A2
:1038D0000178F3A0FFF7ECFDF0480078012816D13D
:1038E000FEF783FDF3A201210846FEF7C1FEF5A213
:1038F00001210220FEF7BCFEF5A201210320FEF704
:10390000B7FEFCF7F3FC0020E4490870E3E0FEF7A3
:1039100007FCF149087008460078012802D1DA490D
:103920000870D8E0ED495220FFF74CF800287AD112
:10393000EB48FEF708FF0028C8D1E9480078E949BC
:103940000978884223D1E6484078E6494978884298
:103950001DD1E3488078E3498978884217D1E0484F
:10396000C078E049C978884211D1FEF73EFDD1A266
:1039700001210846FEF77CFEDBA201210220FEF7B2
:1039800077FEFCF7B3FC0020BF490870A3E0D448E1
:103990000078D8490978884225D1D1484078D5495E
:1039A000497888421FD1CE488078D249897800E092
:1039B000F2E2884217D1CA48C078CE49C978884215
:1039C00011D1FEF712FDBBA201210846FEF750FE01
:1039D000C9A201210220FEF74BFEFCF787FC002064
:1039E000A949087077E0BE480078C649097888423E
:1039F00025D1BB484078C349497888421FD1B8488F
:103A00008078C0498978884219D1B548C078BD49C5
:103A1000C978884213D1FEF7E8FCA6A20121084626
:103A2000FEF726FE00E04DE0B7A201210220FEF7DE
:103A30001FFEFCF75BFC0020934908704BE0A84890
:103A40000078B4490978884223D1A5484078B14923
:103A5000497888421DD1A2488078AE498978884249
:103A600017D19F48C078AB49C978884211D1FEF779
:103A7000BCFC90A201210846FEF7FAFDA6A2012196
:103A80000220FEF7F5FDFCF731FC00207E490870AE
:103A900021E0FEF7AAFCA3A201210846FEF7E8FDFB
:103AA000A4A201210220FEF7E3FDA6A2012103202A
:103AB000FEF7DEFD40F6B830FCF70AFF0020724941
:103AC000087008E000F00EFD002803DB00206E49BE
:103AD000087000E0FBE600BF5EE2FEF786FC9D4852
:103AE0000078012806D0022819D003282CD00428F9
:103AF00054D13EE098A201210846FEF7B9FD99A2F3
:103B000001210220FEF7B4FD9AA201210320FEF755
:103B1000AFFD9CA201210420FEF7AAFD3EE09EA27B
:103B200001210846FEF7A4FD9EA201210220FEF716
:103B30009FFD90A201210320FEF79AFD91A2012191
:103B40000420FEF795FD29E093A201210846FEF727
:103B50008FFD84A201210220FEF78AFD95A201219A
:103B60000320FEF785FD87A201210420FEF780FDDA
:103B700014E089A201210846FEF77AFD79A201210D
:103B80000220FEF775FD7BA201210320FEF770FDE8
:103B90008CA201210420FEF76BFD00BF00BF2CE1C9
:103BA000FEF7BEFA4C4908700846007801280BD190
:103BB00068480078401C6749087008460078042867
:103BC00001DD0120087019E14348007802281FD167
:103BD00060480078012803D102202B4908700DE1CC
:103BE0005C480078022803D103202749087005E1CA
:103BF00058480078032803D1042023490870FDE0C9
:103C000054480078042804D105201F490870F5E0C5
:103C1000E3E0E1E044656D6F31000000202057656E
:103C20006C636F6D6520486F6D652120000000009A
:103C30002020206C6F6164696E672E2E2E2020205C
:103C40000000000066696E67657220696E69742005
:103C5000616761696E0D0A0010000020CBF9D3D0B6
:103C6000C4A3BFE9D2D1B3F5CABCBBAFB3C9B9A62F
:103C70000D0A00002020494E495420535543434526
:103C80005353212000000000030000202020506C2E
:103C90006561736520756E6C6F636B0002000020B8
:103CA000666163655F666C6167203D2025640D0A6F
:103CB00000000000556E6C6F636B20737563636565
:103CC000737300004661636520756E6C6F636B00F3
:103CD000737563636573730004000020180000208F
:103CE000140000201C000020636172642049443AE3
:103CF0002030000020000020636172642049443AB3
:103D00002031000024000020636172642049443A9D
:103D10002032000028000020636172642049443A88
:103D200020330000556E6C6F636B206661696C65B3
:103D3000640000007878787878787878787878787F
:103D400078000000506C65617365202061676169CF
:103D50006E000000050000202D2D3E4164642063AC
:103D6000617264002020204164642066696E67658A
:103D70007200000020202044656C6574652063613A
:103D80007264000020202044656C657465206669BB
:103D90006E6765720000000020202041646420638B
:103DA000617264002D2D3E4164642066696E676512
:103DB000720000002D2D3E44656C657465206361C2
:103DC000726400002D2D3E44656C65746520666943
:103DD0006E6765720000000010E0FA480078032862
:103DE00003D10020F849087008E0F648007804285C
:103DF00003D10020F449087000E0D1E600BF3DE3A4
:103E0000FEF7F3FAF1A201210220FEF731FCC1E036
:103E1000FEF786F9EB4908700846007801280BD1B7
:103E2000EE480078401CED490870084600780328E9
:103E300012DD002008700FE0E2480078042803D16A
:103E40000020E1490870A6E0DE480078032803D18D
:103E50000120DD4908709EE0E048007828B9E0A222
:103E600001210320FEF704FC1BE0DC480078012858
:103E700005D1DEA201210320FEF7FAFB11E0D748AD
:103E80000078022805D1DCA201210320FEF7F0FB17
:103E900007E0D2480078032803D1DAA20121FEF717
:103EA000E7FBDB495220FEF78DFD002872D1D9A037
:103EB000FFF7FEFADA48FEF746FC00286AD1D84838
:103EC000C0780090D648837842780178D5A0FFF773
:103ED000EFFAC248007868B9D1480078D64908702E
:103EE000CF4840784870CE4880788870CC48C078F9
:103EF000C87034E0B948007801280DD1C84800786E
:103F0000CE490870C64840784870C54880788870A7
:103F1000C348C078C87022E0B048007802280DD1AC
:103F2000BF480078C6490870BD4840784870BC4812
:103F300080788870BA48C078C87010E0A7480078C8
:103F400003280CD1B6480078BE490870B4484078C0
:103F50004870B34880788870B148C078C870FCF762
:103F600069F9FEF742FAAFF2D01201210220FEF702
:103F70007FFBB5A201210320FEF77AFB40F6B830A3
:103F8000FCF7A6FC012090490870002093490870B6
:103F900001E0FFE73CE700BF70E2FEF726FAADA2C2
:103FA00001210220FEF764FB98E00024FEF7B8F838
:103FB000844908700846007801280BD187480078AA
:103FC000401C864908700846007803281ADD002046
:103FD000087017E07B480078022803D101207A4955
:103FE00008700FE077480078032803D10120764954
:103FF000087074E073480078042803D100207249E7
:1040000008706CE07548007828B997A20121032058
:10401000FEF72EFB1BE071480078012805D195A220
:1040200001210320FEF724FB11E06C4800780228F0
:1040300005D193A201210320FEF71AFB07E0674890
:104040000078032803D191A20121FEF711FBFCF7B0
:1040500076FA04463CBB0120FCF74EFA044614BB3A
:10406000FCF76DFA0446F4B90220FCF745FA044661
:10407000CCB9FCF71BFB0446ACB9FCF734FB044697
:104080008CB9564801780220FCF74AFB044654B923
:1040900081A0FFF70DFA8348FCF772FB8148018885
:1040A00081A001E0EBE118E0FFF702FAFEF79DF9CD
:1040B00082A201210220FEF7DBFA63A20121032084
:1040C000FEF7D6FA40F6B830FCF702FC01203E4974
:1040D000087000204149087001E000BF65E700BF9B
:1040E000CCE1FEF782F979A201210220FEF7C0FAA5
:1040F00048E1FEF715F833490870084600780128B2
:104100000BD136480078401C3449087008460078C6
:10411000032801DD002008700BE12A4800780228FE
:104120004ED100203E49087048708870C8702B48F6
:10413000007868B9084600783F49087038484078E8
:1041400048703748807888703548C078C87034E047
:104150002248007801280DD131480078374908708D
:104160002F48407848702E48807888702C48C07856
:10417000C87022E01948007802280DD1284800783C
:104180002F49087026484078487025488078887004
:104190002348C078C87010E01048007803280CD17C
:1041A0001F480078274908701D48407848701C480F
:1041B000807888701A48C078C870FCF73BF88DE0AA
:1041C000A7E000000400002003000020506C65619F
:1041D000736520416464204361726400060000201E
:1041E0002020204361726420300000002020204302
:1041F000617264203100000020202043617264203D
:10420000320000002020204361726420330000004F
:1042100018000020C7EBC7F3B3C9B9A60D0A000008
:10422000140000205549443A20257820257820257F
:10423000782025780D0A00001C00002020000020B6
:10424000240000202800002020202073756363656F
:10425000737300002020706C656173652066696E61
:10426000676572310000000020202046696E676596
:104270007220300020202046696E67657220310070
:1042800020202046696E676572203200202020467B
:10429000696E676572203300C2BCC8EBB3C9B9A6AA
:1042A0000000000000000020D6B8CEC6BFE2D6D085
:1042B000D3D02564B8F6D6B8CEC60000202041641D
:1042C000642066696E676572000000002020446506
:1042D0006C657465206361726431000069A0FFF74A
:1042E000E7F8FEF782F86BA201210220FEF7C0F981
:1042F000AFF2AC0201210320FEF7BAF940F6B83064
:10430000FCF7E6FA0120674908700020664908704A
:1043100039E066480078032803D10120614908701C
:1043200031E062480078042803D100205D4908701C
:1043300029E05D48007830B9AFF25C12012103201A
:10434000FEF796F91EE058480078012806D1AFF232
:10435000641201210320FEF78BF913E05248007824
:10436000022806D1AFF2701201210320FEF780F976
:1043700008E04D480078032804D1AFF278120121FB
:10438000FEF776F9B5E600BF78E0FEF72EF848A212
:1043900001210220FEF76CF96DE0FDF7C1FE4349F3
:1043A00008700846007801280BD13F480078401C6F
:1043B0003D49087008460078032833DD0020087066
:1043C00030E03A48007802281CD1FBF7A1FF3DA05D
:1043D000FFF76EF8FEF709F83EA201210220FEF772
:1043E00047F9AFF29C1201210320FEF741F940F694
:1043F000B830FCF76DFA01202A49087000202A49DC
:10440000087039E029480078032803D101202549A4
:10441000087031E025480078042803D100202149A4
:10442000087029E02048007830B9AFF2C4120121A9
:104430000320FEF71DF91EE01B480078012806D175
:10444000AFF2D01201210320FEF712F913E0164853
:104450000078022806D1AFF2D81201210320FEF71E
:1044600007F908E010480078032804D1AFF2E412FD
:104470000121FEF7FDF890E700BF00BF00BFFFF786
:1044800012BA0000C9BEB3FDBFA8C6ACB3C9B9A675
:104490000D0A0000202044656C657465206361721C
:1044A000640000000300002006000020040000203B
:1044B000202044656C6574652066696E676572319D
:1044C00000000000C9BEB3FDD6B8CEC6B3C9B9A6B8
:1044D0000D0A0000202044656C6574652046696EF5
:1044E0006765720038B5FCF72AF80446002C4ED1F7
:1044F0000120FCF701F80446002C48D16B464FF42C
:10450000967200210120FCF773F80446002C2ED18E
:10451000BDF8020064281ADD1EA521A0FEF7C8FF21
:10452000FDF763FF20A201210846FEF7A1F82A4605
:1045300001210220FEF79CF8BDF8002001230C2188
:104540000220FEF773F8FBF7D1FE002038BD1AA059
:10455000FEF7AEFFFDF749FF19A201210846FEF75D
:1045600087F840F6B830FCF7B3F90120EEE718A061
:10457000FEF79EFFFDF739FF11A201210846FEF765
:1045800077F840F6B830FCF7A3F90220DEE74FF0E9
:10459000FF30DBE746696E6765722049443A0000E8
:1045A000C6A5C5E400000000556E6C6F636B2073F8
:1045B0007563636573730000B4EDCEF331000000E2
:1045C000556E6C6F636B206661696C6564000000FA
:1045D000B4EDCEF33200000030B503460C4615466C
:1045E000002207E0184600F008F824F812009B1C8F
:1045F000501C82B2AA42F5DB30BD014608887047E4
:104600002DE9F04F85B080468A461746B8F1006F15
:1046100002D3B8F1406F02D305B0BDE8F08FFCF7CC
:1046200025FAA8F1006B4FEA9B25CBF34809C9F5A1
:104630000074A74200DC3C4655E04FF0006101EBFE
:1046400085208A142B49FFF7C7FF00260BE009EBF2
:104650000600284931F810004FF6FF71884200D05B
:1046600003E0701C86B2A642F1DB00BFA64222DA4C
:1046700000200190012002900490C00600EB8520EC
:104680000390694601A8FCF737F9002608E03AF8DC
:10469000160006EB0901174A22F81100701C86B2B9
:1046A000A642F4DB4FF0006101EB85208A1411492A
:1046B00000F022F804E022465146404600F01CF883
:1046C000A74200D110E06D1C4FF000090AEB440A2C
:1046D00008EB4408381B87B2B7F5007F02DD4FF4C2
:1046E000007400E03C46A8E700BFFCF75DF900BF9E
:1046F00092E70000CE0300202DE9F04104460E466B
:10470000174600250AE036F815C062460023214608
:104710000120FCF753F9A41C681C85B2BD42F2DBF2
:10472000BDE8F08100000000000000000000000073
:1047300000000000000000F800000000000000334E
:104740003000000000100C06100C060000000000F5
:104750000000000040C07840C0784000043F0404DE
:104760003F040400007088FC08300000001820FF9F
:10477000211E0000F008F000E018000000211C03DA
:104780001E211E0000F00888700000001E21232456
:104790001927211010160E00000000000000000074
:1047A00000000000000000E0180402000000000704
:1047B0001820400000020418E0000000004020180B
:1047C00007000000404080F0804040000202010FDE
:1047D00001020200000000F0000000000101011FC2
:1047E00001010100000000000000000080B0700026
:1047F00000000000000000000000000000010101B6
:104800000101010100000000000000000030300044
:10481000000000000000000080601804006018061E
:104820000100000000E010080810E000000F102058
:1048300020100F00001010F8000000000020203FA2
:10484000202000000070080808887000003028242C
:1048500022213000003008888848300000182020CD
:1048600020110E000000C02010F8000000070424F2
:10487000243F240000F80888880808000019212037
:1048800020110E0000E0108888180000000F112091
:1048900020110E0000380808C83808000000003F4A
:1048A000000000000070880808887000001C2221A9
:1048B00021221C0000E010080810E0000000312256
:1048C00022110F00000000C0C000000000000030F6
:1048D0003000000000000080000000000000806048
:1048E00000000000000080402010080000010204C9
:1048F00008102000404040404040400004040404B0
:10490000040404000008102040800000002010086B
:1049100004020100007048080808F00000000030A0
:1049200036010000C030C828E810E000071827242E
:1049300023140B000000C038E0000000203C2302DC
:104940000227382008F8888888700000203F20203F
:1049500020110E00C0300808080838000718202071
:104960002010080008F808080810E000203F202068
:1049700020100F0008F88888E8081000203F202049
:104980002320180008F88888E8081000203F20003D
:1049900003000000C0300808083800000718202075
:1049A000221E020008F808000008F808203F210134
:1049B00001213F20000808F8080800000020203FDF
:1049C0002020000000000808F8080800C08080804F
:1049D0007F00000008F888C028180800203F200148
:1049E0002638200008F8080000000000203F2020A2
:1049F0002020300008F8F800F8F80800203F003FB9
:104A0000003F200008F830C00008F808203F2000D0
:104A100007183F00E01008080810E0000F102020E1
:104A200020100F0008F808080808F000203F2101B6
:104A300001010000E01008080810E0000F1824240D
:104A400038504F0008F8888888887000203F200080
:104A5000030C302000708808080838000038202136
:104A600021221C00180808F8080818000000203F40
:104A70002000000008F808000008F808001F2020A7
:104A800020201F000878880000C838080000073878
:104A90000E010000F80800F80008F800033C0700C9
:104AA000073C0300081868808068180820302C0331
:104AB000032C30200838C800C83808000000203F08
:104AC0002000000010080808C838080020382621F7
:104AD00020201800000000FE020202000000007FFB
:104AE00040404000000C30C0000000000000000109
:104AF0000638C00000020202FE00000000404040F4
:104B00007F00000000000402020204000000000018
:104B10000000000000000000000000008080808095
:104B2000808080800002020400000000000000007D
:104B30000000000000008080808000000019242216
:104B400022223F2008F8008080000000003F112052
:104B500020110E000000008080800000000E112057
:104B600020201100000000808088F800000E112035
:104B700020103F200000808080800000001F222243
:104B800022221300008080F0888888180020203FAF
:104B9000202000000000808080808000006B9494C2
:104BA0009493600008F8008080800000203F21007E
:104BB00000203F2000809898000000000020203F47
:104BC00020200000000000809898000000C0808035
:104BD000807F000008F8000080808000203F2402D1
:104BE0002D302000000808F8000000000020203FC1
:104BF000202000008080808080808000203F200076
:104C00003F20003F8080008080800000203F210006
:104C100000203F200000808080800000001F2020B6
:104C200020201F00808000808000000080FFA120E5
:104C300020110E000000008080808000000E1120F6
:104C400020A0FF80808080008080800020203F2185
:104C50002000010000008080808080000033242438
:104C600024241900008080E0808000000000001FE4
:104C7000202000008080000000808000001F202095
:104C800020103F20808080000080808000010E3056
:104C90000806010080800080008080800F300C03B7
:104CA0000C300F0000808000808080000020312EBA
:104CB0000E312000808080000080808080818E7096
:104CC0001806010000808080808080000021302C48
:104CD0002221300000000000807C02020000000061
:104CE000003F404000000000FF0000000000000006
:104CF000FF0000000002027C800000000040403FF6
:104D0000000000000006010102020404000000008F
:104D10000000000000000000000000000102030489
:104D20000607080900000000010203044C4D0008BA
:104D3000000000203C00000008350008884D0008F5
:104D40003C000020FC0B00001835000800000000AB
:104D5000000100000000000000000000FFFFFFFF56
:104D60000000000000000000FFFFFFFFFFFFFFFF4B
:104D7000FFFFFFFFFFFFFFFF00000000100000002B
:084D8000010000000024F40012
:04000005080000ED02
:00000001FF
